{
  "_format": "hh-sol-artifact-1",
  "contractName": "StockContract",
  "sourceName": "contracts/StockContract.sol",
  "abi": [
    {
      "inputs": [],
      "stateMutability": "nonpayable",
      "type": "constructor"
    },
    {
      "inputs": [],
      "name": "_counter",
      "outputs": [
        {
          "internalType": "uint256",
          "name": "",
          "type": "uint256"
        }
      ],
      "stateMutability": "view",
      "type": "function"
    },
    {
      "inputs": [
        {
          "internalType": "string",
          "name": "name",
          "type": "string"
        },
        {
          "internalType": "string",
          "name": "model",
          "type": "string"
        },
        {
          "internalType": "string",
          "name": "dealer",
          "type": "string"
        },
        {
          "internalType": "string",
          "name": "serialNumber",
          "type": "string"
        },
        {
          "internalType": "string",
          "name": "warranty",
          "type": "string"
        }
      ],
      "name": "addProduct",
      "outputs": [],
      "stateMutability": "nonpayable",
      "type": "function"
    },
    {
      "inputs": [
        {
          "internalType": "string",
          "name": "serialNumber",
          "type": "string"
        }
      ],
      "name": "getProductBySerialNumber",
      "outputs": [
        {
          "internalType": "string",
          "name": "",
          "type": "string"
        },
        {
          "internalType": "string",
          "name": "",
          "type": "string"
        },
        {
          "internalType": "string",
          "name": "",
          "type": "string"
        },
        {
          "internalType": "string",
          "name": "",
          "type": "string"
        },
        {
          "internalType": "bool",
          "name": "",
          "type": "bool"
        },
        {
          "internalType": "string",
          "name": "",
          "type": "string"
        }
      ],
      "stateMutability": "view",
      "type": "function"
    },
    {
      "inputs": [],
      "name": "getProducts",
      "outputs": [
        {
          "components": [
            {
              "internalType": "string",
              "name": "name",
              "type": "string"
            },
            {
              "internalType": "string",
              "name": "model",
              "type": "string"
            },
            {
              "internalType": "string",
              "name": "dealer",
              "type": "string"
            },
            {
              "internalType": "string",
              "name": "serialNumber",
              "type": "string"
            },
            {
              "internalType": "string",
              "name": "warranty",
              "type": "string"
            },
            {
              "internalType": "bool",
              "name": "sold",
              "type": "bool"
            },
            {
              "internalType": "string",
              "name": "customerName",
              "type": "string"
            },
            {
              "internalType": "string",
              "name": "customerEmail",
              "type": "string"
            },
            {
              "internalType": "string",
              "name": "salesDate",
              "type": "string"
            }
          ],
          "internalType": "struct StockContract.Product[]",
          "name": "",
          "type": "tuple[]"
        }
      ],
      "stateMutability": "view",
      "type": "function"
    },
    {
      "inputs": [
        {
          "internalType": "string",
          "name": "dealer",
          "type": "string"
        }
      ],
      "name": "getProductsByDealer",
      "outputs": [
        {
          "components": [
            {
              "internalType": "string",
              "name": "name",
              "type": "string"
            },
            {
              "internalType": "string",
              "name": "model",
              "type": "string"
            },
            {
              "internalType": "string",
              "name": "dealer",
              "type": "string"
            },
            {
              "internalType": "string",
              "name": "serialNumber",
              "type": "string"
            },
            {
              "internalType": "string",
              "name": "warranty",
              "type": "string"
            },
            {
              "internalType": "bool",
              "name": "sold",
              "type": "bool"
            },
            {
              "internalType": "string",
              "name": "customerName",
              "type": "string"
            },
            {
              "internalType": "string",
              "name": "customerEmail",
              "type": "string"
            },
            {
              "internalType": "string",
              "name": "salesDate",
              "type": "string"
            }
          ],
          "internalType": "struct StockContract.Product[]",
          "name": "",
          "type": "tuple[]"
        }
      ],
      "stateMutability": "view",
      "type": "function"
    },
    {
      "inputs": [
        {
          "internalType": "string",
          "name": "serialNumber",
          "type": "string"
        },
        {
          "internalType": "string",
          "name": "customerName",
          "type": "string"
        },
        {
          "internalType": "string",
          "name": "customerEmail",
          "type": "string"
        },
        {
          "internalType": "string",
          "name": "salesDate",
          "type": "string"
        },
        {
          "internalType": "string",
          "name": "warranty",
          "type": "string"
        }
      ],
      "name": "markProductAsSold",
      "outputs": [],
      "stateMutability": "nonpayable",
      "type": "function"
    },
    {
      "inputs": [
        {
          "internalType": "uint256",
          "name": "",
          "type": "uint256"
        }
      ],
      "name": "productDetails",
      "outputs": [
        {
          "internalType": "string",
          "name": "name",
          "type": "string"
        },
        {
          "internalType": "string",
          "name": "model",
          "type": "string"
        },
        {
          "internalType": "string",
          "name": "dealer",
          "type": "string"
        },
        {
          "internalType": "string",
          "name": "serialNumber",
          "type": "string"
        },
        {
          "internalType": "string",
          "name": "warranty",
          "type": "string"
        },
        {
          "internalType": "bool",
          "name": "sold",
          "type": "bool"
        },
        {
          "internalType": "string",
          "name": "customerName",
          "type": "string"
        },
        {
          "internalType": "string",
          "name": "customerEmail",
          "type": "string"
        },
        {
          "internalType": "string",
          "name": "salesDate",
          "type": "string"
        }
      ],
      "stateMutability": "view",
      "type": "function"
    },
    {
      "inputs": [
        {
          "internalType": "uint256",
          "name": "",
          "type": "uint256"
        }
      ],
      "name": "products",
      "outputs": [
        {
          "internalType": "string",
          "name": "name",
          "type": "string"
        },
        {
          "internalType": "string",
          "name": "model",
          "type": "string"
        },
        {
          "internalType": "string",
          "name": "dealer",
          "type": "string"
        },
        {
          "internalType": "string",
          "name": "serialNumber",
          "type": "string"
        },
        {
          "internalType": "string",
          "name": "warranty",
          "type": "string"
        },
        {
          "internalType": "bool",
          "name": "sold",
          "type": "bool"
        },
        {
          "internalType": "string",
          "name": "customerName",
          "type": "string"
        },
        {
          "internalType": "string",
          "name": "customerEmail",
          "type": "string"
        },
        {
          "internalType": "string",
          "name": "salesDate",
          "type": "string"
        }
      ],
      "stateMutability": "view",
      "type": "function"
    },
    {
      "inputs": [
        {
          "internalType": "string",
          "name": "",
          "type": "string"
        }
      ],
      "name": "serialNumberToCustomer",
      "outputs": [
        {
          "internalType": "string",
          "name": "",
          "type": "string"
        }
      ],
      "stateMutability": "view",
      "type": "function"
    },
    {
      "inputs": [
        {
          "internalType": "string",
          "name": "",
          "type": "string"
        }
      ],
      "name": "serialNumberToIndex",
      "outputs": [
        {
          "internalType": "uint256",
          "name": "",
          "type": "uint256"
        }
      ],
      "stateMutability": "view",
      "type": "function"
    },
    {
      "inputs": [
        {
          "internalType": "string",
          "name": "_name",
          "type": "string"
        },
        {
          "internalType": "string",
          "name": "_model",
          "type": "string"
        },
        {
          "internalType": "string",
          "name": "_dealer",
          "type": "string"
        },
        {
          "internalType": "string",
          "name": "_serialNumber",
          "type": "string"
        },
        {
          "internalType": "string",
          "name": "_warranty",
          "type": "string"
        },
        {
          "internalType": "bool",
          "name": "_sold",
          "type": "bool"
        },
        {
          "internalType": "string",
          "name": "_customername",
          "type": "string"
        },
        {
          "internalType": "string",
          "name": "_customeremail",
          "type": "string"
        },
        {
          "internalType": "string",
          "name": "_salesdate",
          "type": "string"
        }
      ],
      "name": "showProduct",
      "outputs": [],
      "stateMutability": "nonpayable",
      "type": "function"
    },
    {
      "inputs": [
        {
          "internalType": "string",
          "name": "serialNumber",
          "type": "string"
        },
        {
          "internalType": "string",
          "name": "customerName",
          "type": "string"
        },
        {
          "internalType": "string",
          "name": "customerEmail",
          "type": "string"
        }
      ],
      "name": "updateCustomerDetails",
      "outputs": [],
      "stateMutability": "nonpayable",
      "type": "function"
    }
  ],
  "bytecode": "0x608060405234801561001057600080fd5b50600160005561282d806100256000396000f3fe608060405234801561001057600080fd5b50600436106100b45760003560e01c8063b0b2f3ca11610071578063b0b2f3ca1461016e578063c29b2f2014610199578063d8929f60146101a1578063e963bf01146101b4578063ec9ebbcb146101d4578063ef6da8d4146101e757600080fd5b80634821c98c146100b957806348f7eb30146100ce57806358506883146100ff57806370c18ccc146101245780637acc0b20146101445780637cd49fde14610157575b600080fd5b6100cc6100c73660046121fd565b6101fa565b005b6100e16100dc366004612345565b610365565b6040516100f69998979695949392919061260e565b60405180910390f35b61011261010d366004612072565b6107f4565b6040516100f696959493929190612598565b610137610132366004612072565b610d68565b6040516100f69190612440565b6100e1610152366004612345565b611440565b61016060005481565b6040519081526020016100f6565b61016061017c366004612072565b805160208183018101805160038252928201919093012091525481565b610137611473565b6100cc6101af366004612131565b611976565b6101c76101c2366004612072565b611af1565b6040516100f6919061257e565b6100cc6101e23660046120ad565b611b96565b6100cc6101f5366004612131565b611ca6565b6040518061012001604052808a81526020018981526020018881526020018781526020018681526020018515158152602001848152602001838152602001828152506002600080548152602001908152602001600020600082015181600001908051906020019061026c929190611eef565b5060208281015180516102859260018501920190611eef565b50604082015180516102a1916002840191602090910190611eef565b50606082015180516102bd916003840191602090910190611eef565b50608082015180516102d9916004840191602090910190611eef565b5060a082015160058201805460ff191691151591909117905560c0820151805161030d916006840191602090910190611eef565b5060e08201518051610329916007840191602090910190611eef565b506101008201518051610346916008840191602090910190611eef565b505060005461035791506001612716565b600055505050505050505050565b60026020526000908152604090208054819061038090612775565b80601f01602080910402602001604051908101604052809291908181526020018280546103ac90612775565b80156103f95780601f106103ce576101008083540402835291602001916103f9565b820191906000526020600020905b8154815290600101906020018083116103dc57829003601f168201915b50505050509080600101805461040e90612775565b80601f016020809104026020016040519081016040528092919081815260200182805461043a90612775565b80156104875780601f1061045c57610100808354040283529160200191610487565b820191906000526020600020905b81548152906001019060200180831161046a57829003601f168201915b50505050509080600201805461049c90612775565b80601f01602080910402602001604051908101604052809291908181526020018280546104c890612775565b80156105155780601f106104ea57610100808354040283529160200191610515565b820191906000526020600020905b8154815290600101906020018083116104f857829003601f168201915b50505050509080600301805461052a90612775565b80601f016020809104026020016040519081016040528092919081815260200182805461055690612775565b80156105a35780601f10610578576101008083540402835291602001916105a3565b820191906000526020600020905b81548152906001019060200180831161058657829003601f168201915b5050505050908060040180546105b890612775565b80601f01602080910402602001604051908101604052809291908181526020018280546105e490612775565b80156106315780601f1061060657610100808354040283529160200191610631565b820191906000526020600020905b81548152906001019060200180831161061457829003601f168201915b5050506005840154600685018054949560ff90921694919350915061065590612775565b80601f016020809104026020016040519081016040528092919081815260200182805461068190612775565b80156106ce5780601f106106a3576101008083540402835291602001916106ce565b820191906000526020600020905b8154815290600101906020018083116106b157829003601f168201915b5050505050908060070180546106e390612775565b80601f016020809104026020016040519081016040528092919081815260200182805461070f90612775565b801561075c5780601f106107315761010080835404028352916020019161075c565b820191906000526020600020905b81548152906001019060200180831161073f57829003601f168201915b50505050509080600801805461077190612775565b80601f016020809104026020016040519081016040528092919081815260200182805461079d90612775565b80156107ea5780601f106107bf576101008083540402835291602001916107ea565b820191906000526020600020905b8154815290600101906020018083116107cd57829003601f168201915b5050505050905089565b6060806060806000606060006003886040516108109190612424565b9081526020016040518091039020549050806000141561084b5760405162461bcd60e51b8152600401610842906126c7565b60405180910390fd5b60006001610859818461272e565b8154811061087757634e487b7160e01b600052603260045260246000fd5b9060005260206000209060090201604051806101200160405290816000820180546108a190612775565b80601f01602080910402602001604051908101604052809291908181526020018280546108cd90612775565b801561091a5780601f106108ef5761010080835404028352916020019161091a565b820191906000526020600020905b8154815290600101906020018083116108fd57829003601f168201915b5050505050815260200160018201805461093390612775565b80601f016020809104026020016040519081016040528092919081815260200182805461095f90612775565b80156109ac5780601f10610981576101008083540402835291602001916109ac565b820191906000526020600020905b81548152906001019060200180831161098f57829003601f168201915b505050505081526020016002820180546109c590612775565b80601f01602080910402602001604051908101604052809291908181526020018280546109f190612775565b8015610a3e5780601f10610a1357610100808354040283529160200191610a3e565b820191906000526020600020905b815481529060010190602001808311610a2157829003601f168201915b50505050508152602001600382018054610a5790612775565b80601f0160208091040260200160405190810160405280929190818152602001828054610a8390612775565b8015610ad05780601f10610aa557610100808354040283529160200191610ad0565b820191906000526020600020905b815481529060010190602001808311610ab357829003601f168201915b50505050508152602001600482018054610ae990612775565b80601f0160208091040260200160405190810160405280929190818152602001828054610b1590612775565b8015610b625780601f10610b3757610100808354040283529160200191610b62565b820191906000526020600020905b815481529060010190602001808311610b4557829003601f168201915b5050509183525050600582015460ff1615156020820152600682018054604090920191610b8e90612775565b80601f0160208091040260200160405190810160405280929190818152602001828054610bba90612775565b8015610c075780601f10610bdc57610100808354040283529160200191610c07565b820191906000526020600020905b815481529060010190602001808311610bea57829003601f168201915b50505050508152602001600782018054610c2090612775565b80601f0160208091040260200160405190810160405280929190818152602001828054610c4c90612775565b8015610c995780601f10610c6e57610100808354040283529160200191610c99565b820191906000526020600020905b815481529060010190602001808311610c7c57829003601f168201915b50505050508152602001600882018054610cb290612775565b80601f0160208091040260200160405190810160405280929190818152602001828054610cde90612775565b8015610d2b5780601f10610d0057610100808354040283529160200191610d2b565b820191906000526020600020905b815481529060010190602001808311610d0e57829003601f168201915b505050919092525050815160208301516040840151606085015160a086015160c090960151939f929e50909c509a50929850965090945050505050565b60015460609060009067ffffffffffffffff811115610d9757634e487b7160e01b600052604160045260246000fd5b604051908082528060200260200182016040528015610dd057816020015b610dbd611f73565b815260200190600190039081610db55790505b5090506000805b60015481101561136057848051906020012060018281548110610e0a57634e487b7160e01b600052603260045260246000fd5b9060005260206000209060090201600201604051610e289190612389565b6040518091039020141561134e5760018181548110610e5757634e487b7160e01b600052603260045260246000fd5b906000526020600020906009020160405180610120016040529081600082018054610e8190612775565b80601f0160208091040260200160405190810160405280929190818152602001828054610ead90612775565b8015610efa5780601f10610ecf57610100808354040283529160200191610efa565b820191906000526020600020905b815481529060010190602001808311610edd57829003601f168201915b50505050508152602001600182018054610f1390612775565b80601f0160208091040260200160405190810160405280929190818152602001828054610f3f90612775565b8015610f8c5780601f10610f6157610100808354040283529160200191610f8c565b820191906000526020600020905b815481529060010190602001808311610f6f57829003601f168201915b50505050508152602001600282018054610fa590612775565b80601f0160208091040260200160405190810160405280929190818152602001828054610fd190612775565b801561101e5780601f10610ff35761010080835404028352916020019161101e565b820191906000526020600020905b81548152906001019060200180831161100157829003601f168201915b5050505050815260200160038201805461103790612775565b80601f016020809104026020016040519081016040528092919081815260200182805461106390612775565b80156110b05780601f10611085576101008083540402835291602001916110b0565b820191906000526020600020905b81548152906001019060200180831161109357829003601f168201915b505050505081526020016004820180546110c990612775565b80601f01602080910402602001604051908101604052809291908181526020018280546110f590612775565b80156111425780601f1061111757610100808354040283529160200191611142565b820191906000526020600020905b81548152906001019060200180831161112557829003601f168201915b5050509183525050600582015460ff161515602082015260068201805460409092019161116e90612775565b80601f016020809104026020016040519081016040528092919081815260200182805461119a90612775565b80156111e75780601f106111bc576101008083540402835291602001916111e7565b820191906000526020600020905b8154815290600101906020018083116111ca57829003601f168201915b5050505050815260200160078201805461120090612775565b80601f016020809104026020016040519081016040528092919081815260200182805461122c90612775565b80156112795780601f1061124e57610100808354040283529160200191611279565b820191906000526020600020905b81548152906001019060200180831161125c57829003601f168201915b5050505050815260200160088201805461129290612775565b80601f01602080910402602001604051908101604052809291908181526020018280546112be90612775565b801561130b5780601f106112e05761010080835404028352916020019161130b565b820191906000526020600020905b8154815290600101906020018083116112ee57829003601f168201915b50505050508152505083838151811061133457634e487b7160e01b600052603260045260246000fd5b6020026020010181905250818061134a906127b0565b9250505b80611358816127b0565b915050610dd7565b5060008167ffffffffffffffff81111561138a57634e487b7160e01b600052604160045260246000fd5b6040519080825280602002602001820160405280156113c357816020015b6113b0611f73565b8152602001906001900390816113a85790505b50905060005b82811015611437578381815181106113f157634e487b7160e01b600052603260045260246000fd5b602002602001015182828151811061141957634e487b7160e01b600052603260045260246000fd5b6020026020010181905250808061142f906127b0565b9150506113c9565b50949350505050565b6001818154811061145057600080fd5b906000526020600020906009020160009150905080600001805461038090612775565b60606001805480602002602001604051908101604052809291908181526020016000905b8282101561196d5783829060005260206000209060090201604051806101200160405290816000820180546114cb90612775565b80601f01602080910402602001604051908101604052809291908181526020018280546114f790612775565b80156115445780601f1061151957610100808354040283529160200191611544565b820191906000526020600020905b81548152906001019060200180831161152757829003601f168201915b5050505050815260200160018201805461155d90612775565b80601f016020809104026020016040519081016040528092919081815260200182805461158990612775565b80156115d65780601f106115ab576101008083540402835291602001916115d6565b820191906000526020600020905b8154815290600101906020018083116115b957829003601f168201915b505050505081526020016002820180546115ef90612775565b80601f016020809104026020016040519081016040528092919081815260200182805461161b90612775565b80156116685780601f1061163d57610100808354040283529160200191611668565b820191906000526020600020905b81548152906001019060200180831161164b57829003601f168201915b5050505050815260200160038201805461168190612775565b80601f01602080910402602001604051908101604052809291908181526020018280546116ad90612775565b80156116fa5780601f106116cf576101008083540402835291602001916116fa565b820191906000526020600020905b8154815290600101906020018083116116dd57829003601f168201915b5050505050815260200160048201805461171390612775565b80601f016020809104026020016040519081016040528092919081815260200182805461173f90612775565b801561178c5780601f106117615761010080835404028352916020019161178c565b820191906000526020600020905b81548152906001019060200180831161176f57829003601f168201915b5050509183525050600582015460ff16151560208201526006820180546040909201916117b890612775565b80601f01602080910402602001604051908101604052809291908181526020018280546117e490612775565b80156118315780601f1061180657610100808354040283529160200191611831565b820191906000526020600020905b81548152906001019060200180831161181457829003601f168201915b5050505050815260200160078201805461184a90612775565b80601f016020809104026020016040519081016040528092919081815260200182805461187690612775565b80156118c35780601f10611898576101008083540402835291602001916118c3565b820191906000526020600020905b8154815290600101906020018083116118a657829003601f168201915b505050505081526020016008820180546118dc90612775565b80601f016020809104026020016040519081016040528092919081815260200182805461190890612775565b80156119555780601f1061192a57610100808354040283529160200191611955565b820191906000526020600020905b81548152906001019060200180831161193857829003601f168201915b50505050508152505081526020019060010190611497565b50505050905090565b60006003866040516119889190612424565b908152602001604051809103902054905080600014156119ba5760405162461bcd60e51b8152600401610842906126c7565b600060016119c8818461272e565b815481106119e657634e487b7160e01b600052603260045260246000fd5b60009182526020909120600990910201600581015490915060ff1615611a4e5760405162461bcd60e51b815260206004820152601860248201527f50726f6475637420697320616c726561647920736f6c642e00000000000000006044820152606401610842565b60058101805460ff191660011790558551611a729060068301906020890190611eef565b508451611a889060078301906020880190611eef565b508351611a9e9060088301906020870190611eef565b508251611ab49060048301906020860190611eef565b5085600488604051611ac69190612424565b90815260200160405180910390209080519060200190611ae7929190611eef565b5050505050505050565b805160208183018101805160048252928201919093012091528054611b1590612775565b80601f0160208091040260200160405190810160405280929190818152602001828054611b4190612775565b8015611b8e5780601f10611b6357610100808354040283529160200191611b8e565b820191906000526020600020905b815481529060010190602001808311611b7157829003601f168201915b505050505081565b6000600384604051611ba89190612424565b90815260200160405180910390205490508060001415611bda5760405162461bcd60e51b8152600401610842906126c7565b60006001611be8818461272e565b81548110611c0657634e487b7160e01b600052603260045260246000fd5b6000918252602090912060056009909202019081015490915060ff161515600114611c735760405162461bcd60e51b815260206004820152601860248201527f50726f64756374206973206e6f742079657420736f6c642e00000000000000006044820152606401610842565b8351611c889060068301906020870190611eef565b508251611c9e9060078301906020860190611eef565b505050505050565b600382604051611cb69190612424565b908152602001604051809103902054600014611d2c5760405162461bcd60e51b815260206004820152602f60248201527f50726f64756374207769746820746869732073657269616c206e756d6265722060448201526e30b63932b0b23c9032bc34b9ba399760891b6064820152608401610842565b604080516101208101825286815260208082018790528183018690526060820185905260808201849052600060a083018190528351808301855281815260c08401528351808301855281815260e084015283518085019094526001808552600360fc1b8584015261010084019490945283548085018555939052815180519293849360099091027fb10e2d527612073b26eecdfd717e6a320cf44b4afac2b0732d9fcbe2b7fa0cf60192611de4928492910190611eef565b506020828101518051611dfd9260018501920190611eef565b5060408201518051611e19916002840191602090910190611eef565b5060608201518051611e35916003840191602090910190611eef565b5060808201518051611e51916004840191602090910190611eef565b5060a082015160058201805460ff191691151591909117905560c08201518051611e85916006840191602090910190611eef565b5060e08201518051611ea1916007840191602090910190611eef565b506101008201518051611ebe916008840191602090910190611eef565b505050600180549050600384604051611ed79190612424565b90815260405190819003602001902055505050505050565b828054611efb90612775565b90600052602060002090601f016020900481019282611f1d5760008555611f63565b82601f10611f3657805160ff1916838001178555611f63565b82800160010185558215611f63579182015b82811115611f63578251825591602001919060010190611f48565b50611f6f929150611fc1565b5090565b60405180610120016040528060608152602001606081526020016060815260200160608152602001606081526020016000151581526020016060815260200160608152602001606081525090565b5b80821115611f6f5760008155600101611fc2565b80358015158114611fe657600080fd5b919050565b600082601f830112611ffb578081fd5b813567ffffffffffffffff80821115612016576120166127e1565b604051601f8301601f19908116603f0116810190828211818310171561203e5761203e6127e1565b81604052838152866020858801011115612056578485fd5b8360208701602083013792830160200193909352509392505050565b600060208284031215612083578081fd5b813567ffffffffffffffff811115612099578182fd5b6120a584828501611feb565b949350505050565b6000806000606084860312156120c1578182fd5b833567ffffffffffffffff808211156120d8578384fd5b6120e487838801611feb565b945060208601359150808211156120f9578384fd5b61210587838801611feb565b9350604086013591508082111561211a578283fd5b5061212786828701611feb565b9150509250925092565b600080600080600060a08688031215612148578081fd5b853567ffffffffffffffff8082111561215f578283fd5b61216b89838a01611feb565b96506020880135915080821115612180578283fd5b61218c89838a01611feb565b955060408801359150808211156121a1578283fd5b6121ad89838a01611feb565b945060608801359150808211156121c2578283fd5b6121ce89838a01611feb565b935060808801359150808211156121e3578283fd5b506121f088828901611feb565b9150509295509295909350565b60008060008060008060008060006101208a8c03121561221b578384fd5b893567ffffffffffffffff80821115612232578586fd5b61223e8d838e01611feb565b9a5060208c0135915080821115612253578586fd5b61225f8d838e01611feb565b995060408c0135915080821115612274578586fd5b6122808d838e01611feb565b985060608c0135915080821115612295578586fd5b6122a18d838e01611feb565b975060808c01359150808211156122b6578586fd5b6122c28d838e01611feb565b96506122d060a08d01611fd6565b955060c08c01359150808211156122e5578485fd5b6122f18d838e01611feb565b945060e08c0135915080821115612306578384fd5b6123128d838e01611feb565b93506101008c0135915080821115612328578283fd5b506123358c828d01611feb565b9150509295985092959850929598565b600060208284031215612356578081fd5b5035919050565b60008151808452612375816020860160208601612745565b601f01601f19169290920160200192915050565b600080835482600182811c9150808316806123a557607f831692505b60208084108214156123c557634e487b7160e01b87526022600452602487fd5b8180156123d957600181146123ea57612416565b60ff19861689528489019650612416565b60008a815260209020885b8681101561240e5781548b8201529085019083016123f5565b505084890196505b509498975050505050505050565b60008251612436818460208701612745565b9190910192915050565b60006020808301818452808551808352604092508286019150828160051b870101848801865b8381101561257057603f198984030185528151610120815181865261248d8287018261235d565b915050888201518582038a8701526124a5828261235d565b91505087820151858203898701526124bd828261235d565b915050606080830151868303828801526124d7838261235d565b92505050608080830151868303828801526124f2838261235d565b9250505060a0808301516125098288018215159052565b505060c08083015186830382880152612522838261235d565b9250505060e0808301518683038288015261253d838261235d565b92505050610100808301519250858203818701525061255c818361235d565b968901969450505090860190600101612466565b509098975050505050505050565b602081526000612591602083018461235d565b9392505050565b60c0815260006125ab60c083018961235d565b82810360208401526125bd818961235d565b905082810360408401526125d1818861235d565b905082810360608401526125e5818761235d565b9050841515608084015282810360a0840152612601818561235d565b9998505050505050505050565b60006101208083526126228184018d61235d565b90508281036020840152612636818c61235d565b9050828103604084015261264a818b61235d565b9050828103606084015261265e818a61235d565b90508281036080840152612672818961235d565b905086151560a084015282810360c084015261268e818761235d565b905082810360e08401526126a2818661235d565b90508281036101008401526126b7818561235d565b9c9b505050505050505050505050565b6020808252602f908201527f50726f64756374207769746820746869732073657269616c206e756d6265722060408201526e3237b2b9903737ba1032bc34b9ba1760891b606082015260800190565b60008219821115612729576127296127cb565b500190565b600082821015612740576127406127cb565b500390565b60005b83811015612760578181015183820152602001612748565b8381111561276f576000848401525b50505050565b600181811c9082168061278957607f821691505b602082108114156127aa57634e487b7160e01b600052602260045260246000fd5b50919050565b60006000198214156127c4576127c46127cb565b5060010190565b634e487b7160e01b600052601160045260246000fd5b634e487b7160e01b600052604160045260246000fdfea26469706673582212203c810107416ff598c8d224b47e5f0137e2b015c39c4ea7847e3350d8fc4d2e5b64736f6c63430008040033",
  "linkReferences": {},
  "deployedLinkReferences": {}
}